{
  "_format": "hh-sol-artifact-1",
  "contractName": "Transaction",
  "sourceName": "contracts/Transaction.sol",
  "abi": [
    {
      "anonymous": false,
      "inputs": [
        {
          "indexed": false,
          "internalType": "address",
          "name": "sender",
          "type": "address"
        },
        {
          "indexed": false,
          "internalType": "address",
          "name": "receiver",
          "type": "address"
        },
        {
          "indexed": false,
          "internalType": "uint256",
          "name": "amount",
          "type": "uint256"
        },
        {
          "indexed": false,
          "internalType": "uint256",
          "name": "timestamp",
          "type": "uint256"
        },
        {
          "indexed": false,
          "internalType": "string",
          "name": "message",
          "type": "string"
        }
      ],
      "name": "TransactionEvent",
      "type": "event"
    },
    {
      "inputs": [
        {
          "internalType": "string",
          "name": "title",
          "type": "string"
        },
        {
          "internalType": "string",
          "name": "pageHash",
          "type": "string"
        }
      ],
      "name": "addPage",
      "outputs": [],
      "stateMutability": "nonpayable",
      "type": "function"
    },
    {
      "inputs": [],
      "name": "getPages",
      "outputs": [
        {
          "components": [
            {
              "internalType": "string",
              "name": "title",
              "type": "string"
            },
            {
              "internalType": "string",
              "name": "pageHash",
              "type": "string"
            },
            {
              "internalType": "uint256",
              "name": "numOfDonations",
              "type": "uint256"
            }
          ],
          "internalType": "struct Transaction.PageStruct[]",
          "name": "",
          "type": "tuple[]"
        }
      ],
      "stateMutability": "view",
      "type": "function"
    },
    {
      "inputs": [],
      "name": "getTenLatestTransactions",
      "outputs": [
        {
          "components": [
            {
              "internalType": "address",
              "name": "sender",
              "type": "address"
            },
            {
              "internalType": "address",
              "name": "receiver",
              "type": "address"
            },
            {
              "internalType": "uint256",
              "name": "amount",
              "type": "uint256"
            },
            {
              "internalType": "uint256",
              "name": "timestamp",
              "type": "uint256"
            },
            {
              "internalType": "string",
              "name": "message",
              "type": "string"
            }
          ],
          "internalType": "struct Transaction.TransactionStruct[]",
          "name": "",
          "type": "tuple[]"
        }
      ],
      "stateMutability": "view",
      "type": "function"
    },
    {
      "inputs": [
        {
          "internalType": "address",
          "name": "receiver",
          "type": "address"
        },
        {
          "internalType": "uint256",
          "name": "amount",
          "type": "uint256"
        },
        {
          "internalType": "string",
          "name": "message",
          "type": "string"
        },
        {
          "internalType": "string",
          "name": "pageHash",
          "type": "string"
        }
      ],
      "name": "sendTransaction",
      "outputs": [],
      "stateMutability": "nonpayable",
      "type": "function"
    }
  ],
  "bytecode": "0x608060405234801561001057600080fd5b506112ba806100206000396000f3fe608060405234801561001057600080fd5b506004361061004c5760003560e01c806314f592ef14610051578063c67584111461006f578063d56f13311461008b578063df5ab96c146100a7575b600080fd5b6100596100c5565b6040516100669190610f57565b60405180910390f35b61008960048036038101906100849190610b04565b610276565b005b6100a560048036038101906100a09190610a71565b610307565b005b6100af61076f565b6040516100bc9190610f35565b60405180910390f35b60606002805480602002602001604051908101604052809291908181526020016000905b8282101561026d57838290600052602060002090600502016040518060a00160405290816000820160009054906101000a900473ffffffffffffffffffffffffffffffffffffffff1673ffffffffffffffffffffffffffffffffffffffff1673ffffffffffffffffffffffffffffffffffffffff1681526020016001820160009054906101000a900473ffffffffffffffffffffffffffffffffffffffff1673ffffffffffffffffffffffffffffffffffffffff1673ffffffffffffffffffffffffffffffffffffffff16815260200160028201548152602001600382015481526020016004820180546101dc9061110c565b80601f01602080910402602001604051908101604052809291908181526020018280546102089061110c565b80156102555780601f1061022a57610100808354040283529160200191610255565b820191906000526020600020905b81548152906001019060200180831161023857829003601f168201915b505050505081525050815260200190600101906100e9565b50505050905090565b600060405180606001604052808481526020018381526020016000815250908060018154018082558091505060019003906000526020600020906003020160009091909190915060008201518160000190805190602001906102d99291906108fc565b5060208201518160010190805190602001906102f69291906108fc565b506040820151816002015550505050565b60006040518060a001604052803373ffffffffffffffffffffffffffffffffffffffff1681526020018673ffffffffffffffffffffffffffffffffffffffff168152602001858152602001428152602001848152509050600181908060018154018082558091505060019003906000526020600020906005020160009091909190915060008201518160000160006101000a81548173ffffffffffffffffffffffffffffffffffffffff021916908373ffffffffffffffffffffffffffffffffffffffff16021790555060208201518160010160006101000a81548173ffffffffffffffffffffffffffffffffffffffff021916908373ffffffffffffffffffffffffffffffffffffffff160217905550604082015181600201556060820151816003015560808201518160040190805190602001906104489291906108fc565b505050600281908060018154018082558091505060019003906000526020600020906005020160009091909190915060008201518160000160006101000a81548173ffffffffffffffffffffffffffffffffffffffff021916908373ffffffffffffffffffffffffffffffffffffffff16021790555060208201518160010160006101000a81548173ffffffffffffffffffffffffffffffffffffffff021916908373ffffffffffffffffffffffffffffffffffffffff160217905550604082015181600201556060820151816003015560808201518160040190805190602001906105359291906108fc565b50505060005b60008054905081101561065f57826040516020016105599190610ead565b60405160208183030381529060405280519060200120600082815481106105a9577f4e487b7100000000000000000000000000000000000000000000000000000000600052603260045260246000fd5b90600052602060002090600302016001016040516020016105ca9190610ec4565b60405160208183030381529060405280519060200120141561064c5760008181548110610620577f4e487b7100000000000000000000000000000000000000000000000000000000600052603260045260246000fd5b906000526020600020906003020160020160008154809291906106429061116f565b919050555061065f565b80806106579061116f565b91505061053b565b50600a60028054905011156107295760026000815481106106a9577f4e487b7100000000000000000000000000000000000000000000000000000000600052603260045260246000fd5b9060005260206000209060050201600080820160006101000a81549073ffffffffffffffffffffffffffffffffffffffff02191690556001820160006101000a81549073ffffffffffffffffffffffffffffffffffffffff0219169055600282016000905560038201600090556004820160006107269190610982565b50505b7f23bd48479109ebe107d42a7fb2c7c7e9aadc60d240778f6bab53730f2dadef593386864287604051610760959493929190610edb565b60405180910390a15050505050565b60606000805480602002602001604051908101604052809291908181526020016000905b828210156108f357838290600052602060002090600302016040518060600160405290816000820180546107c69061110c565b80601f01602080910402602001604051908101604052809291908181526020018280546107f29061110c565b801561083f5780601f106108145761010080835404028352916020019161083f565b820191906000526020600020905b81548152906001019060200180831161082257829003601f168201915b505050505081526020016001820180546108589061110c565b80601f01602080910402602001604051908101604052809291908181526020018280546108849061110c565b80156108d15780601f106108a6576101008083540402835291602001916108d1565b820191906000526020600020905b8154815290600101906020018083116108b457829003601f168201915b5050505050815260200160028201548152505081526020019060010190610793565b50505050905090565b8280546109089061110c565b90600052602060002090601f01602090048101928261092a5760008555610971565b82601f1061094357805160ff1916838001178555610971565b82800160010185558215610971579182015b82811115610970578251825591602001919060010190610955565b5b50905061097e91906109c2565b5090565b50805461098e9061110c565b6000825580601f106109a057506109bf565b601f0160209004906000526020600020908101906109be91906109c2565b5b50565b5b808211156109db5760008160009055506001016109c3565b5090565b60006109f26109ed84610f9e565b610f79565b905082815260208101848484011115610a0a57600080fd5b610a158482856110ca565b509392505050565b600081359050610a2c81611256565b92915050565b600082601f830112610a4357600080fd5b8135610a538482602086016109df565b91505092915050565b600081359050610a6b8161126d565b92915050565b60008060008060808587031215610a8757600080fd5b6000610a9587828801610a1d565b9450506020610aa687828801610a5c565b935050604085013567ffffffffffffffff811115610ac357600080fd5b610acf87828801610a32565b925050606085013567ffffffffffffffff811115610aec57600080fd5b610af887828801610a32565b91505092959194509250565b60008060408385031215610b1757600080fd5b600083013567ffffffffffffffff811115610b3157600080fd5b610b3d85828601610a32565b925050602083013567ffffffffffffffff811115610b5a57600080fd5b610b6685828601610a32565b9150509250929050565b6000610b7c8383610dc2565b905092915050565b6000610b908383610e19565b905092915050565b610ba18161108e565b82525050565b610bb08161108e565b82525050565b6000610bc182611004565b610bcb818561103f565b935083602082028501610bdd85610fcf565b8060005b85811015610c195784840389528151610bfa8582610b70565b9450610c0583611025565b925060208a01995050600181019050610be1565b50829750879550505050505092915050565b6000610c368261100f565b610c408185611050565b935083602082028501610c5285610fdf565b8060005b85811015610c8e5784840389528151610c6f8582610b84565b9450610c7a83611032565b925060208a01995050600181019050610c56565b50829750879550505050505092915050565b6000610cab8261101a565b610cb58185611061565b9350610cc58185602086016110d9565b610cce81611245565b840191505092915050565b6000610ce48261101a565b610cee8185611072565b9350610cfe8185602086016110d9565b610d0781611245565b840191505092915050565b6000610d1d8261101a565b610d278185611083565b9350610d378185602086016110d9565b80840191505092915050565b60008154610d508161110c565b610d5a8186611083565b94506001821660008114610d755760018114610d8657610db9565b60ff19831686528186019350610db9565b610d8f85610fef565b60005b83811015610db157815481890152600182019150602081019050610d92565b838801955050505b50505092915050565b60006060830160008301518482036000860152610ddf8282610ca0565b91505060208301518482036020860152610df98282610ca0565b9150506040830151610e0e6040860182610e8f565b508091505092915050565b600060a083016000830151610e316000860182610b98565b506020830151610e446020860182610b98565b506040830151610e576040860182610e8f565b506060830151610e6a6060860182610e8f565b5060808301518482036080860152610e828282610ca0565b9150508091505092915050565b610e98816110c0565b82525050565b610ea7816110c0565b82525050565b6000610eb98284610d12565b915081905092915050565b6000610ed08284610d43565b915081905092915050565b600060a082019050610ef06000830188610ba7565b610efd6020830187610ba7565b610f0a6040830186610e9e565b610f176060830185610e9e565b8181036080830152610f298184610cd9565b90509695505050505050565b60006020820190508181036000830152610f4f8184610bb6565b905092915050565b60006020820190508181036000830152610f718184610c2b565b905092915050565b6000610f83610f94565b9050610f8f828261113e565b919050565b6000604051905090565b600067ffffffffffffffff821115610fb957610fb8611216565b5b610fc282611245565b9050602081019050919050565b6000819050602082019050919050565b6000819050602082019050919050565b60008190508160005260206000209050919050565b600081519050919050565b600081519050919050565b600081519050919050565b6000602082019050919050565b6000602082019050919050565b600082825260208201905092915050565b600082825260208201905092915050565b600082825260208201905092915050565b600082825260208201905092915050565b600081905092915050565b6000611099826110a0565b9050919050565b600073ffffffffffffffffffffffffffffffffffffffff82169050919050565b6000819050919050565b82818337600083830152505050565b60005b838110156110f75780820151818401526020810190506110dc565b83811115611106576000848401525b50505050565b6000600282049050600182168061112457607f821691505b60208210811415611138576111376111e7565b5b50919050565b61114782611245565b810181811067ffffffffffffffff8211171561116657611165611216565b5b80604052505050565b600061117a826110c0565b91507fffffffffffffffffffffffffffffffffffffffffffffffffffffffffffffffff8214156111ad576111ac6111b8565b5b600182019050919050565b7f4e487b7100000000000000000000000000000000000000000000000000000000600052601160045260246000fd5b7f4e487b7100000000000000000000000000000000000000000000000000000000600052602260045260246000fd5b7f4e487b7100000000000000000000000000000000000000000000000000000000600052604160045260246000fd5b6000601f19601f8301169050919050565b61125f8161108e565b811461126a57600080fd5b50565b611276816110c0565b811461128157600080fd5b5056fea264697066735822122037e1c4362cb1cbbf42bd368e4207a1268ec893317e6e6cc69e17e02bcd33e8d764736f6c63430008040033",
  "linkReferences": {},
  "deployedLinkReferences": {}
}