{
  "_format": "hh-sol-artifact-1",
  "contractName": "Transaction",
  "sourceName": "contracts/Transaction.sol",
  "abi": [
    {
      "anonymous": false,
      "inputs": [
        {
          "indexed": false,
          "internalType": "address",
          "name": "creatorAddress",
          "type": "address"
        },
        {
          "indexed": false,
          "internalType": "uint256",
          "name": "timestamp",
          "type": "uint256"
        },
        {
          "indexed": false,
          "internalType": "string",
          "name": "title",
          "type": "string"
        },
        {
          "indexed": false,
          "internalType": "string",
          "name": "content",
          "type": "string"
        }
      ],
      "name": "CreatePageEvent",
      "type": "event"
    },
    {
      "anonymous": false,
      "inputs": [
        {
          "indexed": false,
          "internalType": "address",
          "name": "sender",
          "type": "address"
        },
        {
          "indexed": false,
          "internalType": "address",
          "name": "receiver",
          "type": "address"
        },
        {
          "indexed": false,
          "internalType": "uint256",
          "name": "amount",
          "type": "uint256"
        },
        {
          "indexed": false,
          "internalType": "uint256",
          "name": "timestamp",
          "type": "uint256"
        },
        {
          "indexed": false,
          "internalType": "string",
          "name": "message",
          "type": "string"
        }
      ],
      "name": "TransactionEvent",
      "type": "event"
    },
    {
      "inputs": [
        {
          "internalType": "string",
          "name": "title",
          "type": "string"
        },
        {
          "internalType": "string",
          "name": "content",
          "type": "string"
        }
      ],
      "name": "createPage",
      "outputs": [],
      "stateMutability": "nonpayable",
      "type": "function"
    },
    {
      "inputs": [
        {
          "internalType": "address",
          "name": "receiver",
          "type": "address"
        },
        {
          "internalType": "uint256",
          "name": "amount",
          "type": "uint256"
        },
        {
          "internalType": "string",
          "name": "message",
          "type": "string"
        }
      ],
      "name": "sendTransaction",
      "outputs": [],
      "stateMutability": "nonpayable",
      "type": "function"
    }
  ],
  "bytecode": "0x608060405234801561001057600080fd5b50610526806100206000396000f3fe608060405234801561001057600080fd5b50600436106100365760003560e01c80633a0f78371461003b578063928cb43314610057575b600080fd5b610055600480360381019061005091906101f1565b610073565b005b610071600480360381019061006c919061018a565b6100b4565b005b7f83ce23a8b62da1ff7ba745125df49a0f21abb00a1445bd0ecb7a0308ad240371334284846040516100a8949392919061030e565b60405180910390a15050565b7f23bd48479109ebe107d42a7fb2c7c7e9aadc60d240778f6bab53730f2dadef5933848442856040516100eb9594939291906102b4565b60405180910390a1505050565b600061010b61010684610386565b610361565b90508281526020810184848401111561012357600080fd5b61012e84828561040f565b509392505050565b600081359050610145816104c2565b92915050565b600082601f83011261015c57600080fd5b813561016c8482602086016100f8565b91505092915050565b600081359050610184816104d9565b92915050565b60008060006060848603121561019f57600080fd5b60006101ad86828701610136565b93505060206101be86828701610175565b925050604084013567ffffffffffffffff8111156101db57600080fd5b6101e78682870161014b565b9150509250925092565b6000806040838503121561020457600080fd5b600083013567ffffffffffffffff81111561021e57600080fd5b61022a8582860161014b565b925050602083013567ffffffffffffffff81111561024757600080fd5b6102538582860161014b565b9150509250929050565b610266816103d3565b82525050565b6000610277826103b7565b61028181856103c2565b935061029181856020860161041e565b61029a816104b1565b840191505092915050565b6102ae81610405565b82525050565b600060a0820190506102c9600083018861025d565b6102d6602083018761025d565b6102e360408301866102a5565b6102f060608301856102a5565b8181036080830152610302818461026c565b90509695505050505050565b6000608082019050610323600083018761025d565b61033060208301866102a5565b8181036040830152610342818561026c565b90508181036060830152610356818461026c565b905095945050505050565b600061036b61037c565b90506103778282610451565b919050565b6000604051905090565b600067ffffffffffffffff8211156103a1576103a0610482565b5b6103aa826104b1565b9050602081019050919050565b600081519050919050565b600082825260208201905092915050565b60006103de826103e5565b9050919050565b600073ffffffffffffffffffffffffffffffffffffffff82169050919050565b6000819050919050565b82818337600083830152505050565b60005b8381101561043c578082015181840152602081019050610421565b8381111561044b576000848401525b50505050565b61045a826104b1565b810181811067ffffffffffffffff8211171561047957610478610482565b5b80604052505050565b7f4e487b7100000000000000000000000000000000000000000000000000000000600052604160045260246000fd5b6000601f19601f8301169050919050565b6104cb816103d3565b81146104d657600080fd5b50565b6104e281610405565b81146104ed57600080fd5b5056fea2646970667358221220db89ca4d75d966f482f5fdb74c4a15c18e8f1869606cb314a5603170aae32c3364736f6c63430008040033",
  "linkReferences": {},
  "deployedLinkReferences": {}
}