{
  "_format": "hh-sol-artifact-1",
  "contractName": "Transaction",
  "sourceName": "contracts/Transaction.sol",
  "abi": [
    {
      "anonymous": false,
      "inputs": [
        {
          "indexed": false,
          "internalType": "address",
          "name": "sender",
          "type": "address"
        },
        {
          "indexed": false,
          "internalType": "address",
          "name": "receiver",
          "type": "address"
        },
        {
          "indexed": false,
          "internalType": "uint256",
          "name": "amount",
          "type": "uint256"
        },
        {
          "indexed": false,
          "internalType": "uint256",
          "name": "timestamp",
          "type": "uint256"
        },
        {
          "indexed": false,
          "internalType": "string",
          "name": "message",
          "type": "string"
        }
      ],
      "name": "TransactionEvent",
      "type": "event"
    },
    {
      "inputs": [
        {
          "internalType": "string",
          "name": "title",
          "type": "string"
        },
        {
          "internalType": "string",
          "name": "pageHash",
          "type": "string"
        }
      ],
      "name": "addPage",
      "outputs": [],
      "stateMutability": "nonpayable",
      "type": "function"
    },
    {
      "inputs": [
        {
          "internalType": "string",
          "name": "title",
          "type": "string"
        }
      ],
      "name": "getPageHash",
      "outputs": [
        {
          "internalType": "string",
          "name": "",
          "type": "string"
        }
      ],
      "stateMutability": "view",
      "type": "function"
    },
    {
      "inputs": [],
      "name": "getTenLatestTransactions",
      "outputs": [
        {
          "components": [
            {
              "internalType": "address",
              "name": "sender",
              "type": "address"
            },
            {
              "internalType": "address",
              "name": "receiver",
              "type": "address"
            },
            {
              "internalType": "uint256",
              "name": "amount",
              "type": "uint256"
            },
            {
              "internalType": "uint256",
              "name": "timestamp",
              "type": "uint256"
            },
            {
              "internalType": "string",
              "name": "message",
              "type": "string"
            }
          ],
          "internalType": "struct Transaction.TransactionStruct[]",
          "name": "",
          "type": "tuple[]"
        }
      ],
      "stateMutability": "view",
      "type": "function"
    },
    {
      "inputs": [
        {
          "internalType": "address",
          "name": "receiver",
          "type": "address"
        }
      ],
      "name": "getTransactionsByAddress",
      "outputs": [
        {
          "components": [
            {
              "internalType": "address",
              "name": "sender",
              "type": "address"
            },
            {
              "internalType": "address",
              "name": "receiver",
              "type": "address"
            },
            {
              "internalType": "uint256",
              "name": "amount",
              "type": "uint256"
            },
            {
              "internalType": "uint256",
              "name": "timestamp",
              "type": "uint256"
            },
            {
              "internalType": "string",
              "name": "message",
              "type": "string"
            }
          ],
          "internalType": "struct Transaction.TransactionStruct[]",
          "name": "",
          "type": "tuple[]"
        }
      ],
      "stateMutability": "view",
      "type": "function"
    },
    {
      "inputs": [
        {
          "internalType": "address",
          "name": "receiver",
          "type": "address"
        },
        {
          "internalType": "uint256",
          "name": "amount",
          "type": "uint256"
        },
        {
          "internalType": "string",
          "name": "message",
          "type": "string"
        }
      ],
      "name": "sendTransaction",
      "outputs": [],
      "stateMutability": "nonpayable",
      "type": "function"
    }
  ],
  "bytecode": "0x608060405234801561001057600080fd5b506111c3806100206000396000f3fe608060405234801561001057600080fd5b50600436106100575760003560e01c80630947b4dc1461005c57806314f592ef1461008c57806371891452146100aa578063928cb433146100da578063c6758411146100f6575b600080fd5b61007660048036038101906100719190610b78565b610112565b6040516100839190610f04565b60405180910390f35b610094610302565b6040516100a19190610f04565b60405180910390f35b6100c460048036038101906100bf9190610c08565b6104b3565b6040516100d19190610f26565b60405180910390f35b6100f460048036038101906100ef9190610ba1565b610563565b005b610110600480360381019061010b9190610c49565b6109cc565b005b6060600160008373ffffffffffffffffffffffffffffffffffffffff1673ffffffffffffffffffffffffffffffffffffffff168152602001908152602001600020805480602002602001604051908101604052809291908181526020016000905b828210156102f757838290600052602060002090600502016040518060a00160405290816000820160009054906101000a900473ffffffffffffffffffffffffffffffffffffffff1673ffffffffffffffffffffffffffffffffffffffff1673ffffffffffffffffffffffffffffffffffffffff1681526020016001820160009054906101000a900473ffffffffffffffffffffffffffffffffffffffff1673ffffffffffffffffffffffffffffffffffffffff1673ffffffffffffffffffffffffffffffffffffffff16815260200160028201548152602001600382015481526020016004820180546102669061108d565b80601f01602080910402602001604051908101604052809291908181526020018280546102929061108d565b80156102df5780601f106102b4576101008083540402835291602001916102df565b820191906000526020600020905b8154815290600101906020018083116102c257829003601f168201915b50505050508152505081526020019060010190610173565b505050509050919050565b60606003805480602002602001604051908101604052809291908181526020016000905b828210156104aa57838290600052602060002090600502016040518060a00160405290816000820160009054906101000a900473ffffffffffffffffffffffffffffffffffffffff1673ffffffffffffffffffffffffffffffffffffffff1673ffffffffffffffffffffffffffffffffffffffff1681526020016001820160009054906101000a900473ffffffffffffffffffffffffffffffffffffffff1673ffffffffffffffffffffffffffffffffffffffff1673ffffffffffffffffffffffffffffffffffffffff16815260200160028201548152602001600382015481526020016004820180546104199061108d565b80601f01602080910402602001604051908101604052809291908181526020018280546104459061108d565b80156104925780601f1061046757610100808354040283529160200191610492565b820191906000526020600020905b81548152906001019060200180831161047557829003601f168201915b50505050508152505081526020019060010190610326565b50505050905090565b60606000826040516104c59190610e93565b908152602001604051809103902080546104de9061108d565b80601f016020809104026020016040519081016040528092919081815260200182805461050a9061108d565b80156105575780601f1061052c57610100808354040283529160200191610557565b820191906000526020600020905b81548152906001019060200180831161053a57829003601f168201915b50505050509050919050565b60006040518060a001604052803373ffffffffffffffffffffffffffffffffffffffff1681526020018573ffffffffffffffffffffffffffffffffffffffff168152602001848152602001428152602001838152509050600281908060018154018082558091505060019003906000526020600020906005020160009091909190915060008201518160000160006101000a81548173ffffffffffffffffffffffffffffffffffffffff021916908373ffffffffffffffffffffffffffffffffffffffff16021790555060208201518160010160006101000a81548173ffffffffffffffffffffffffffffffffffffffff021916908373ffffffffffffffffffffffffffffffffffffffff160217905550604082015181600201556060820151816003015560808201518160040190805190602001906106a4929190610a03565b505050600160008573ffffffffffffffffffffffffffffffffffffffff1673ffffffffffffffffffffffffffffffffffffffff16815260200190815260200160002081908060018154018082558091505060019003906000526020600020906005020160009091909190915060008201518160000160006101000a81548173ffffffffffffffffffffffffffffffffffffffff021916908373ffffffffffffffffffffffffffffffffffffffff16021790555060208201518160010160006101000a81548173ffffffffffffffffffffffffffffffffffffffff021916908373ffffffffffffffffffffffffffffffffffffffff160217905550604082015181600201556060820151816003015560808201518160040190805190602001906107ce929190610a03565b505050600381908060018154018082558091505060019003906000526020600020906005020160009091909190915060008201518160000160006101000a81548173ffffffffffffffffffffffffffffffffffffffff021916908373ffffffffffffffffffffffffffffffffffffffff16021790555060208201518160010160006101000a81548173ffffffffffffffffffffffffffffffffffffffff021916908373ffffffffffffffffffffffffffffffffffffffff160217905550604082015181600201556060820151816003015560808201518160040190805190602001906108bb929190610a03565b505050600a6003805490501115610987576003600081548110610907577f4e487b7100000000000000000000000000000000000000000000000000000000600052603260045260246000fd5b9060005260206000209060050201600080820160006101000a81549073ffffffffffffffffffffffffffffffffffffffff02191690556001820160006101000a81549073ffffffffffffffffffffffffffffffffffffffff0219169055600282016000905560038201600090556004820160006109849190610a89565b50505b7f23bd48479109ebe107d42a7fb2c7c7e9aadc60d240778f6bab53730f2dadef5933858542866040516109be959493929190610eaa565b60405180910390a150505050565b806000836040516109dd9190610e93565b908152602001604051809103902090805190602001906109fe929190610a03565b505050565b828054610a0f9061108d565b90600052602060002090601f016020900481019282610a315760008555610a78565b82601f10610a4a57805160ff1916838001178555610a78565b82800160010185558215610a78579182015b82811115610a77578251825591602001919060010190610a5c565b5b509050610a859190610ac9565b5090565b508054610a959061108d565b6000825580601f10610aa75750610ac6565b601f016020900490600052602060002090810190610ac59190610ac9565b5b50565b5b80821115610ae2576000816000905550600101610aca565b5090565b6000610af9610af484610f6d565b610f48565b905082815260208101848484011115610b1157600080fd5b610b1c84828561104b565b509392505050565b600081359050610b338161115f565b92915050565b600082601f830112610b4a57600080fd5b8135610b5a848260208601610ae6565b91505092915050565b600081359050610b7281611176565b92915050565b600060208284031215610b8a57600080fd5b6000610b9884828501610b24565b91505092915050565b600080600060608486031215610bb657600080fd5b6000610bc486828701610b24565b9350506020610bd586828701610b63565b925050604084013567ffffffffffffffff811115610bf257600080fd5b610bfe86828701610b39565b9150509250925092565b600060208284031215610c1a57600080fd5b600082013567ffffffffffffffff811115610c3457600080fd5b610c4084828501610b39565b91505092915050565b60008060408385031215610c5c57600080fd5b600083013567ffffffffffffffff811115610c7657600080fd5b610c8285828601610b39565b925050602083013567ffffffffffffffff811115610c9f57600080fd5b610cab85828601610b39565b9150509250929050565b6000610cc18383610dff565b905092915050565b610cd28161100f565b82525050565b610ce18161100f565b82525050565b6000610cf282610fae565b610cfc8185610fd1565b935083602082028501610d0e85610f9e565b8060005b85811015610d4a5784840389528151610d2b8582610cb5565b9450610d3683610fc4565b925060208a01995050600181019050610d12565b50829750879550505050505092915050565b6000610d6782610fb9565b610d718185610fe2565b9350610d8181856020860161105a565b610d8a8161114e565b840191505092915050565b6000610da082610fb9565b610daa8185610ff3565b9350610dba81856020860161105a565b610dc38161114e565b840191505092915050565b6000610dd982610fb9565b610de38185611004565b9350610df381856020860161105a565b80840191505092915050565b600060a083016000830151610e176000860182610cc9565b506020830151610e2a6020860182610cc9565b506040830151610e3d6040860182610e75565b506060830151610e506060860182610e75565b5060808301518482036080860152610e688282610d5c565b9150508091505092915050565b610e7e81611041565b82525050565b610e8d81611041565b82525050565b6000610e9f8284610dce565b915081905092915050565b600060a082019050610ebf6000830188610cd8565b610ecc6020830187610cd8565b610ed96040830186610e84565b610ee66060830185610e84565b8181036080830152610ef88184610d95565b90509695505050505050565b60006020820190508181036000830152610f1e8184610ce7565b905092915050565b60006020820190508181036000830152610f408184610d95565b905092915050565b6000610f52610f63565b9050610f5e82826110bf565b919050565b6000604051905090565b600067ffffffffffffffff821115610f8857610f8761111f565b5b610f918261114e565b9050602081019050919050565b6000819050602082019050919050565b600081519050919050565b600081519050919050565b6000602082019050919050565b600082825260208201905092915050565b600082825260208201905092915050565b600082825260208201905092915050565b600081905092915050565b600061101a82611021565b9050919050565b600073ffffffffffffffffffffffffffffffffffffffff82169050919050565b6000819050919050565b82818337600083830152505050565b60005b8381101561107857808201518184015260208101905061105d565b83811115611087576000848401525b50505050565b600060028204905060018216806110a557607f821691505b602082108114156110b9576110b86110f0565b5b50919050565b6110c88261114e565b810181811067ffffffffffffffff821117156110e7576110e661111f565b5b80604052505050565b7f4e487b7100000000000000000000000000000000000000000000000000000000600052602260045260246000fd5b7f4e487b7100000000000000000000000000000000000000000000000000000000600052604160045260246000fd5b6000601f19601f8301169050919050565b6111688161100f565b811461117357600080fd5b50565b61117f81611041565b811461118a57600080fd5b5056fea26469706673582212201e74b9770b1b7e2f963d85ce5cb43477f71cbbad748fdbca04f14d92dbeffed264736f6c63430008040033",
  "linkReferences": {},
  "deployedLinkReferences": {}
}