{
  "_format": "hh-sol-artifact-1",
  "contractName": "Transaction",
  "sourceName": "contracts/Transaction.sol",
  "abi": [
    {
      "anonymous": false,
      "inputs": [
        {
          "indexed": false,
          "internalType": "address",
          "name": "sender",
          "type": "address"
        },
        {
          "indexed": false,
          "internalType": "address",
          "name": "receiver",
          "type": "address"
        },
        {
          "indexed": false,
          "internalType": "uint256",
          "name": "amount",
          "type": "uint256"
        },
        {
          "indexed": false,
          "internalType": "uint256",
          "name": "timestamp",
          "type": "uint256"
        },
        {
          "indexed": false,
          "internalType": "string",
          "name": "message",
          "type": "string"
        }
      ],
      "name": "TransactionEvent",
      "type": "event"
    },
    {
      "inputs": [
        {
          "internalType": "string",
          "name": "title",
          "type": "string"
        },
        {
          "internalType": "string",
          "name": "pageHash",
          "type": "string"
        }
      ],
      "name": "addPage",
      "outputs": [],
      "stateMutability": "nonpayable",
      "type": "function"
    },
    {
      "inputs": [],
      "name": "getPageHash",
      "outputs": [
        {
          "internalType": "string[]",
          "name": "",
          "type": "string[]"
        }
      ],
      "stateMutability": "view",
      "type": "function"
    },
    {
      "inputs": [],
      "name": "getTenLatestTransactions",
      "outputs": [
        {
          "components": [
            {
              "internalType": "address",
              "name": "sender",
              "type": "address"
            },
            {
              "internalType": "address",
              "name": "receiver",
              "type": "address"
            },
            {
              "internalType": "uint256",
              "name": "amount",
              "type": "uint256"
            },
            {
              "internalType": "uint256",
              "name": "timestamp",
              "type": "uint256"
            },
            {
              "internalType": "string",
              "name": "message",
              "type": "string"
            }
          ],
          "internalType": "struct Transaction.TransactionStruct[]",
          "name": "",
          "type": "tuple[]"
        }
      ],
      "stateMutability": "view",
      "type": "function"
    },
    {
      "inputs": [
        {
          "internalType": "address",
          "name": "receiver",
          "type": "address"
        }
      ],
      "name": "getTransactionsByAddress",
      "outputs": [
        {
          "components": [
            {
              "internalType": "address",
              "name": "sender",
              "type": "address"
            },
            {
              "internalType": "address",
              "name": "receiver",
              "type": "address"
            },
            {
              "internalType": "uint256",
              "name": "amount",
              "type": "uint256"
            },
            {
              "internalType": "uint256",
              "name": "timestamp",
              "type": "uint256"
            },
            {
              "internalType": "string",
              "name": "message",
              "type": "string"
            }
          ],
          "internalType": "struct Transaction.TransactionStruct[]",
          "name": "",
          "type": "tuple[]"
        }
      ],
      "stateMutability": "view",
      "type": "function"
    },
    {
      "inputs": [
        {
          "internalType": "address",
          "name": "receiver",
          "type": "address"
        },
        {
          "internalType": "uint256",
          "name": "amount",
          "type": "uint256"
        },
        {
          "internalType": "string",
          "name": "message",
          "type": "string"
        }
      ],
      "name": "sendTransaction",
      "outputs": [],
      "stateMutability": "nonpayable",
      "type": "function"
    }
  ],
  "bytecode": "0x608060405234801561001057600080fd5b506112d2806100206000396000f3fe608060405234801561001057600080fd5b50600436106100575760003560e01c80630947b4dc1461005c57806314f592ef1461008c578063928cb433146100aa5780639c29456e146100c6578063c6758411146100e4575b600080fd5b61007660048036038101906100719190610bb9565b610100565b6040516100839190610ff1565b60405180910390f35b6100946102f0565b6040516100a19190610ff1565b60405180910390f35b6100c460048036038101906100bf9190610be2565b6104a1565b005b6100ce61090a565b6040516100db9190610fcf565b60405180910390f35b6100fe60048036038101906100f99190610c49565b6109e3565b005b6060600160008373ffffffffffffffffffffffffffffffffffffffff1673ffffffffffffffffffffffffffffffffffffffff168152602001908152602001600020805480602002602001604051908101604052809291908181526020016000905b828210156102e557838290600052602060002090600502016040518060a00160405290816000820160009054906101000a900473ffffffffffffffffffffffffffffffffffffffff1673ffffffffffffffffffffffffffffffffffffffff1673ffffffffffffffffffffffffffffffffffffffff1681526020016001820160009054906101000a900473ffffffffffffffffffffffffffffffffffffffff1673ffffffffffffffffffffffffffffffffffffffff1673ffffffffffffffffffffffffffffffffffffffff16815260200160028201548152602001600382015481526020016004820180546102549061119c565b80601f01602080910402602001604051908101604052809291908181526020018280546102809061119c565b80156102cd5780601f106102a2576101008083540402835291602001916102cd565b820191906000526020600020905b8154815290600101906020018083116102b057829003601f168201915b50505050508152505081526020019060010190610161565b505050509050919050565b60606003805480602002602001604051908101604052809291908181526020016000905b8282101561049857838290600052602060002090600502016040518060a00160405290816000820160009054906101000a900473ffffffffffffffffffffffffffffffffffffffff1673ffffffffffffffffffffffffffffffffffffffff1673ffffffffffffffffffffffffffffffffffffffff1681526020016001820160009054906101000a900473ffffffffffffffffffffffffffffffffffffffff1673ffffffffffffffffffffffffffffffffffffffff1673ffffffffffffffffffffffffffffffffffffffff16815260200160028201548152602001600382015481526020016004820180546104079061119c565b80601f01602080910402602001604051908101604052809291908181526020018280546104339061119c565b80156104805780601f1061045557610100808354040283529160200191610480565b820191906000526020600020905b81548152906001019060200180831161046357829003601f168201915b50505050508152505081526020019060010190610314565b50505050905090565b60006040518060a001604052803373ffffffffffffffffffffffffffffffffffffffff1681526020018573ffffffffffffffffffffffffffffffffffffffff168152602001848152602001428152602001838152509050600281908060018154018082558091505060019003906000526020600020906005020160009091909190915060008201518160000160006101000a81548173ffffffffffffffffffffffffffffffffffffffff021916908373ffffffffffffffffffffffffffffffffffffffff16021790555060208201518160010160006101000a81548173ffffffffffffffffffffffffffffffffffffffff021916908373ffffffffffffffffffffffffffffffffffffffff160217905550604082015181600201556060820151816003015560808201518160040190805190602001906105e2929190610a44565b505050600160008573ffffffffffffffffffffffffffffffffffffffff1673ffffffffffffffffffffffffffffffffffffffff16815260200190815260200160002081908060018154018082558091505060019003906000526020600020906005020160009091909190915060008201518160000160006101000a81548173ffffffffffffffffffffffffffffffffffffffff021916908373ffffffffffffffffffffffffffffffffffffffff16021790555060208201518160010160006101000a81548173ffffffffffffffffffffffffffffffffffffffff021916908373ffffffffffffffffffffffffffffffffffffffff1602179055506040820151816002015560608201518160030155608082015181600401908051906020019061070c929190610a44565b505050600381908060018154018082558091505060019003906000526020600020906005020160009091909190915060008201518160000160006101000a81548173ffffffffffffffffffffffffffffffffffffffff021916908373ffffffffffffffffffffffffffffffffffffffff16021790555060208201518160010160006101000a81548173ffffffffffffffffffffffffffffffffffffffff021916908373ffffffffffffffffffffffffffffffffffffffff160217905550604082015181600201556060820151816003015560808201518160040190805190602001906107f9929190610a44565b505050600a60038054905011156108c5576003600081548110610845577f4e487b7100000000000000000000000000000000000000000000000000000000600052603260045260246000fd5b9060005260206000209060050201600080820160006101000a81549073ffffffffffffffffffffffffffffffffffffffff02191690556001820160006101000a81549073ffffffffffffffffffffffffffffffffffffffff0219169055600282016000905560038201600090556004820160006108c29190610aca565b50505b7f23bd48479109ebe107d42a7fb2c7c7e9aadc60d240778f6bab53730f2dadef5933858542866040516108fc959493929190610f75565b60405180910390a150505050565b60606000805480602002602001604051908101604052809291908181526020016000905b828210156109da57838290600052602060002001805461094d9061119c565b80601f01602080910402602001604051908101604052809291908181526020018280546109799061119c565b80156109c65780601f1061099b576101008083540402835291602001916109c6565b820191906000526020600020905b8154815290600101906020018083116109a957829003601f168201915b50505050508152602001906001019061092e565b50505050905090565b600082826040516020016109f8929190610f42565b604051602081830303815290604052908060018154018082558091505060019003906000526020600020016000909190919091509080519060200190610a3f929190610a44565b505050565b828054610a509061119c565b90600052602060002090601f016020900481019282610a725760008555610ab9565b82601f10610a8b57805160ff1916838001178555610ab9565b82800160010185558215610ab9579182015b82811115610ab8578251825591602001919060010190610a9d565b5b509050610ac69190610b0a565b5090565b508054610ad69061119c565b6000825580601f10610ae85750610b07565b601f016020900490600052602060002090810190610b069190610b0a565b5b50565b5b80821115610b23576000816000905550600101610b0b565b5090565b6000610b3a610b3584611038565b611013565b905082815260208101848484011115610b5257600080fd5b610b5d84828561115a565b509392505050565b600081359050610b748161126e565b92915050565b600082601f830112610b8b57600080fd5b8135610b9b848260208601610b27565b91505092915050565b600081359050610bb381611285565b92915050565b600060208284031215610bcb57600080fd5b6000610bd984828501610b65565b91505092915050565b600080600060608486031215610bf757600080fd5b6000610c0586828701610b65565b9350506020610c1686828701610ba4565b925050604084013567ffffffffffffffff811115610c3357600080fd5b610c3f86828701610b7a565b9150509250925092565b60008060408385031215610c5c57600080fd5b600083013567ffffffffffffffff811115610c7657600080fd5b610c8285828601610b7a565b925050602083013567ffffffffffffffff811115610c9f57600080fd5b610cab85828601610b7a565b9150509250929050565b6000610cc18383610e16565b905092915050565b6000610cd58383610eae565b905092915050565b610ce68161111e565b82525050565b610cf58161111e565b82525050565b6000610d0682611089565b610d1081856110cf565b935083602082028501610d2285611069565b8060005b85811015610d5e5784840389528151610d3f8582610cb5565b9450610d4a836110b5565b925060208a01995050600181019050610d26565b50829750879550505050505092915050565b6000610d7b82611094565b610d8581856110e0565b935083602082028501610d9785611079565b8060005b85811015610dd35784840389528151610db48582610cc9565b9450610dbf836110c2565b925060208a01995050600181019050610d9b565b50829750879550505050505092915050565b6000610df08261109f565b610dfa81856110f1565b9350610e0a818560208601611169565b80840191505092915050565b6000610e21826110aa565b610e2b81856110fc565b9350610e3b818560208601611169565b610e448161125d565b840191505092915050565b6000610e5a826110aa565b610e64818561110d565b9350610e74818560208601611169565b610e7d8161125d565b840191505092915050565b7f202d200000000000000000000000000000000000000000000000000000000000815250565b600060a083016000830151610ec66000860182610cdd565b506020830151610ed96020860182610cdd565b506040830151610eec6040860182610f24565b506060830151610eff6060860182610f24565b5060808301518482036080860152610f178282610e16565b9150508091505092915050565b610f2d81611150565b82525050565b610f3c81611150565b82525050565b6000610f4e8285610de5565b9150610f5982610e88565b600382019150610f698284610de5565b91508190509392505050565b600060a082019050610f8a6000830188610cec565b610f976020830187610cec565b610fa46040830186610f33565b610fb16060830185610f33565b8181036080830152610fc38184610e4f565b90509695505050505050565b60006020820190508181036000830152610fe98184610cfb565b905092915050565b6000602082019050818103600083015261100b8184610d70565b905092915050565b600061101d61102e565b905061102982826111ce565b919050565b6000604051905090565b600067ffffffffffffffff8211156110535761105261122e565b5b61105c8261125d565b9050602081019050919050565b6000819050602082019050919050565b6000819050602082019050919050565b600081519050919050565b600081519050919050565b600081519050919050565b600081519050919050565b6000602082019050919050565b6000602082019050919050565b600082825260208201905092915050565b600082825260208201905092915050565b600081905092915050565b600082825260208201905092915050565b600082825260208201905092915050565b600061112982611130565b9050919050565b600073ffffffffffffffffffffffffffffffffffffffff82169050919050565b6000819050919050565b82818337600083830152505050565b60005b8381101561118757808201518184015260208101905061116c565b83811115611196576000848401525b50505050565b600060028204905060018216806111b457607f821691505b602082108114156111c8576111c76111ff565b5b50919050565b6111d78261125d565b810181811067ffffffffffffffff821117156111f6576111f561122e565b5b80604052505050565b7f4e487b7100000000000000000000000000000000000000000000000000000000600052602260045260246000fd5b7f4e487b7100000000000000000000000000000000000000000000000000000000600052604160045260246000fd5b6000601f19601f8301169050919050565b6112778161111e565b811461128257600080fd5b50565b61128e81611150565b811461129957600080fd5b5056fea26469706673582212205f9bb7c1ae1345d5ce157775d1f2a58debd7dffe97866b983daf4d8712b94d8064736f6c63430008040033",
  "linkReferences": {},
  "deployedLinkReferences": {}
}